{
  "contractName": "MockUFragmentsPolicy",
  "abi": [
    {
      "anonymous": false,
      "inputs": [
        {
          "indexed": false,
          "name": "instanceName",
          "type": "string"
        },
        {
          "indexed": false,
          "name": "functionName",
          "type": "string"
        },
        {
          "indexed": false,
          "name": "caller",
          "type": "address"
        }
      ],
      "name": "FunctionCalled",
      "type": "event"
    },
    {
      "anonymous": false,
      "inputs": [
        {
          "indexed": false,
          "name": "uintVals",
          "type": "uint256[]"
        },
        {
          "indexed": false,
          "name": "intVals",
          "type": "int256[]"
        }
      ],
      "name": "FunctionArguments",
      "type": "event"
    },
    {
      "anonymous": false,
      "inputs": [
        {
          "indexed": false,
          "name": "val",
          "type": "int256"
        }
      ],
      "name": "ReturnValueInt256",
      "type": "event"
    },
    {
      "anonymous": false,
      "inputs": [
        {
          "indexed": false,
          "name": "val",
          "type": "uint256"
        }
      ],
      "name": "ReturnValueUInt256",
      "type": "event"
    },
    {
      "constant": false,
      "inputs": [],
      "name": "rebase",
      "outputs": [],
      "payable": false,
      "stateMutability": "nonpayable",
      "type": "function"
    }
  ],
  "bytecode": "0x6080604052348015600f57600080fd5b506101608061001f6000396000f300608060405260043610610041576000357c0100000000000000000000000000000000000000000000000000000000900463ffffffff168063af14052c14610046575b600080fd5b34801561005257600080fd5b5061005b61005d565b005b7f2b3954800366dad952bc52d224185a924290610f61c43c305929b61f35dfd178336040518080602001806020018473ffffffffffffffffffffffffffffffffffffffff1673ffffffffffffffffffffffffffffffffffffffff168152602001838103835260108152602001807f55467261676d656e7473506f6c69637900000000000000000000000000000000815250602001838103825260068152602001807f7265626173650000000000000000000000000000000000000000000000000000815250602001935050505060405180910390a15600a165627a7a7230582064480797a74961154746baeeaac193f67546694b851c4b1ed54d23de51d1fc750029",
  "source": "pragma solidity 0.4.24;\n\nimport \"./Mock.sol\";\n\n\ncontract MockUFragmentsPolicy is Mock {\n    \n    function rebase() external {\n        emit FunctionCalled(\"UFragmentsPolicy\", \"rebase\", msg.sender);\n    }\n}\n",
  "sourcePath": "/home/codezeros/Music/AMPL/uFragments/contracts/mocks/MockUFragmentsPolicy.sol",
  "compiler": {
    "name": "solc",
    "version": "0.4.24+commit.e67f0147.Emscripten.clang"
  },
  "schemaVersion": "2.0.1",
  "updatedAt": "2020-08-21T08:02:06.038Z"
}