{
  "contractName": "Orchestrator",
  "abi": [
    {
      "constant": true,
      "inputs": [],
      "name": "policy",
      "outputs": [
        {
          "name": "",
          "type": "address"
        }
      ],
      "payable": false,
      "stateMutability": "view",
      "type": "function"
    },
    {
      "constant": false,
      "inputs": [],
      "name": "renounceOwnership",
      "outputs": [],
      "payable": false,
      "stateMutability": "nonpayable",
      "type": "function"
    },
    {
      "constant": true,
      "inputs": [],
      "name": "owner",
      "outputs": [
        {
          "name": "",
          "type": "address"
        }
      ],
      "payable": false,
      "stateMutability": "view",
      "type": "function"
    },
    {
      "constant": true,
      "inputs": [],
      "name": "isOwner",
      "outputs": [
        {
          "name": "",
          "type": "bool"
        }
      ],
      "payable": false,
      "stateMutability": "view",
      "type": "function"
    },
    {
      "constant": true,
      "inputs": [
        {
          "name": "",
          "type": "uint256"
        }
      ],
      "name": "transactions",
      "outputs": [
        {
          "name": "enabled",
          "type": "bool"
        },
        {
          "name": "destination",
          "type": "address"
        },
        {
          "name": "data",
          "type": "bytes"
        }
      ],
      "payable": false,
      "stateMutability": "view",
      "type": "function"
    },
    {
      "constant": false,
      "inputs": [
        {
          "name": "sender",
          "type": "address"
        }
      ],
      "name": "initialize",
      "outputs": [],
      "payable": false,
      "stateMutability": "nonpayable",
      "type": "function"
    },
    {
      "constant": false,
      "inputs": [
        {
          "name": "newOwner",
          "type": "address"
        }
      ],
      "name": "transferOwnership",
      "outputs": [],
      "payable": false,
      "stateMutability": "nonpayable",
      "type": "function"
    },
    {
      "inputs": [
        {
          "name": "policy_",
          "type": "address"
        }
      ],
      "payable": false,
      "stateMutability": "nonpayable",
      "type": "constructor"
    },
    {
      "anonymous": false,
      "inputs": [
        {
          "indexed": true,
          "name": "destination",
          "type": "address"
        },
        {
          "indexed": false,
          "name": "index",
          "type": "uint256"
        },
        {
          "indexed": false,
          "name": "data",
          "type": "bytes"
        }
      ],
      "name": "TransactionFailed",
      "type": "event"
    },
    {
      "anonymous": false,
      "inputs": [
        {
          "indexed": true,
          "name": "previousOwner",
          "type": "address"
        }
      ],
      "name": "OwnershipRenounced",
      "type": "event"
    },
    {
      "anonymous": false,
      "inputs": [
        {
          "indexed": true,
          "name": "previousOwner",
          "type": "address"
        },
        {
          "indexed": true,
          "name": "newOwner",
          "type": "address"
        }
      ],
      "name": "OwnershipTransferred",
      "type": "event"
    },
    {
      "constant": false,
      "inputs": [],
      "name": "rebase",
      "outputs": [],
      "payable": false,
      "stateMutability": "nonpayable",
      "type": "function"
    },
    {
      "constant": false,
      "inputs": [
        {
          "name": "destination",
          "type": "address"
        },
        {
          "name": "data",
          "type": "bytes"
        }
      ],
      "name": "addTransaction",
      "outputs": [],
      "payable": false,
      "stateMutability": "nonpayable",
      "type": "function"
    },
    {
      "constant": false,
      "inputs": [
        {
          "name": "index",
          "type": "uint256"
        }
      ],
      "name": "removeTransaction",
      "outputs": [],
      "payable": false,
      "stateMutability": "nonpayable",
      "type": "function"
    },
    {
      "constant": false,
      "inputs": [
        {
          "name": "index",
          "type": "uint256"
        },
        {
          "name": "enabled",
          "type": "bool"
        }
      ],
      "name": "setTransactionEnabled",
      "outputs": [],
      "payable": false,
      "stateMutability": "nonpayable",
      "type": "function"
    },
    {
      "constant": true,
      "inputs": [],
      "name": "transactionsSize",
      "outputs": [
        {
          "name": "",
          "type": "uint256"
        }
      ],
      "payable": false,
      "stateMutability": "view",
      "type": "function"
    }
  ],
  "bytecode": "0x608060405234801561001057600080fd5b5060405160208062001507833981018060405281019080805190602001909291905050506100503361009764010000000002610de5176401000000009004565b80606760006101000a81548173ffffffffffffffffffffffffffffffffffffffff021916908373ffffffffffffffffffffffffffffffffffffffff1602179055505061021d565b60008060019054906101000a900460ff16806100c657506100c5610206640100000000026401000000009004565b5b806100dd57506000809054906101000a900460ff16155b1515610151576040517f08c379a000000000000000000000000000000000000000000000000000000000815260040180806020018281038252601c8152602001807f436f6e747261637420616c726561647920696e697469616c697a65640000000081525060200191505060405180910390fd5b600060019054906101000a900460ff1615905080156101a0576001600060016101000a81548160ff02191690831515021790555060016000806101000a81548160ff0219169083151502179055505b81603360006101000a81548173ffffffffffffffffffffffffffffffffffffffff021916908373ffffffffffffffffffffffffffffffffffffffff16021790555080156102025760008060016101000a81548160ff0219169083151502179055505b5050565b6000806000309150813b9050600081149250505090565b6112da806200022d6000396000f3006080604052600436106100ba576000357c0100000000000000000000000000000000000000000000000000000000900463ffffffff1680630505c8c9146100bf578063126e19be1461011657806346c3bd1f146101715780636e9dde991461019e578063715018a6146101d75780638da5cb5b146101ee5780638f32d59b1461024557806391d4ec18146102745780639ace38c21461029f578063af14052c14610383578063c4d66de81461039a578063f2fde38b146103dd575b600080fd5b3480156100cb57600080fd5b506100d4610420565b604051808273ffffffffffffffffffffffffffffffffffffffff1673ffffffffffffffffffffffffffffffffffffffff16815260200191505060405180910390f35b34801561012257600080fd5b5061016f600480360381019080803573ffffffffffffffffffffffffffffffffffffffff169060200190929190803590602001908201803590602001919091929391929390505050610446565b005b34801561017d57600080fd5b5061019c60048036038101908080359060200190929190505050610579565b005b3480156101aa57600080fd5b506101d560048036038101908080359060200190929190803515159060200190929190505050610733565b005b3480156101e357600080fd5b506101ec610824565b005b3480156101fa57600080fd5b506102036108e0565b604051808273ffffffffffffffffffffffffffffffffffffffff1673ffffffffffffffffffffffffffffffffffffffff16815260200191505060405180910390f35b34801561025157600080fd5b5061025a61090a565b604051808215151515815260200191505060405180910390f35b34801561028057600080fd5b50610289610962565b6040518082815260200191505060405180910390f35b3480156102ab57600080fd5b506102ca6004803603810190808035906020019092919050505061096f565b60405180841515151581526020018373ffffffffffffffffffffffffffffffffffffffff1673ffffffffffffffffffffffffffffffffffffffff16815260200180602001828103825283818151815260200191508051906020019080838360005b8381101561034657808201518184015260208101905061032b565b50505050905090810190601f1680156103735780820380516001836020036101000a031916815260200191505b5094505050505060405180910390f35b34801561038f57600080fd5b50610398610a6d565b005b3480156103a657600080fd5b506103db600480360381019080803573ffffffffffffffffffffffffffffffffffffffff169060200190929190505050610de5565b005b3480156103e957600080fd5b5061041e600480360381019080803573ffffffffffffffffffffffffffffffffffffffff169060200190929190505050610f45565b005b606760009054906101000a900473ffffffffffffffffffffffffffffffffffffffff1681565b61044e61090a565b151561045957600080fd5b60666060604051908101604052806001151581526020018573ffffffffffffffffffffffffffffffffffffffff16815260200184848080601f0160208091040260200160405190810160405280939291908181526020018383808284378201915050505050508152509080600181540180825580915050906001820390600052602060002090600202016000909192909190915060008201518160000160006101000a81548160ff02191690831515021790555060208201518160000160016101000a81548173ffffffffffffffffffffffffffffffffffffffff021916908373ffffffffffffffffffffffffffffffffffffffff160217905550604082015181600101908051906020019061057092919061109e565b50505050505050565b61058161090a565b151561058c57600080fd5b60668054905081101515610608576040517f08c379a00000000000000000000000000000000000000000000000000000000081526004018080602001828103825260138152602001807f696e646578206f7574206f6620626f756e64730000000000000000000000000081525060200191505060405180910390fd5b60016066805490500381101561071a57606660016066805490500381548110151561062f57fe5b906000526020600020906002020160668281548110151561064c57fe5b90600052602060002090600202016000820160009054906101000a900460ff168160000160006101000a81548160ff0219169083151502179055506000820160019054906101000a900473ffffffffffffffffffffffffffffffffffffffff168160000160016101000a81548173ffffffffffffffffffffffffffffffffffffffff021916908373ffffffffffffffffffffffffffffffffffffffff1602179055506001820181600101908054600181600116156101000203166002900461071592919061111e565b509050505b606680548091906001900361072f91906111a5565b5050565b61073b61090a565b151561074657600080fd5b606680549050821015156107e8576040517f08c379a00000000000000000000000000000000000000000000000000000000081526004018080602001828103825260288152602001807f696e646578206d75737420626520696e2072616e6765206f662073746f72656481526020017f207478206c69737400000000000000000000000000000000000000000000000081525060400191505060405180910390fd5b806066838154811015156107f857fe5b906000526020600020906002020160000160006101000a81548160ff0219169083151502179055505050565b61082c61090a565b151561083757600080fd5b603360009054906101000a900473ffffffffffffffffffffffffffffffffffffffff1673ffffffffffffffffffffffffffffffffffffffff167ff8df31144d9c2f0f6b59d69b8b98abd5459d07f2742c4df920b25aae33c6482060405160405180910390a26000603360006101000a81548173ffffffffffffffffffffffffffffffffffffffff021916908373ffffffffffffffffffffffffffffffffffffffff160217905550565b6000603360009054906101000a900473ffffffffffffffffffffffffffffffffffffffff16905090565b6000603360009054906101000a900473ffffffffffffffffffffffffffffffffffffffff1673ffffffffffffffffffffffffffffffffffffffff163373ffffffffffffffffffffffffffffffffffffffff1614905090565b6000606680549050905090565b60668181548110151561097e57fe5b90600052602060002090600202016000915090508060000160009054906101000a900460ff16908060000160019054906101000a900473ffffffffffffffffffffffffffffffffffffffff1690806001018054600181600116156101000203166002900480601f016020809104026020016040519081016040528092919081815260200182805460018160011615610100020316600290048015610a635780601f10610a3857610100808354040283529160200191610a63565b820191906000526020600020905b815481529060010190602001808311610a4657829003601f168201915b5050505050905083565b60008060003273ffffffffffffffffffffffffffffffffffffffff163373ffffffffffffffffffffffffffffffffffffffff16141515610aac57600080fd5b606760009054906101000a900473ffffffffffffffffffffffffffffffffffffffff1673ffffffffffffffffffffffffffffffffffffffff1663af14052c6040518163ffffffff167c0100000000000000000000000000000000000000000000000000000000028152600401600060405180830381600087803b158015610b3257600080fd5b505af1158015610b46573d6000803e3d6000fd5b50505050600092505b606680549050831015610de057606683815481101515610b6b57fe5b906000526020600020906002020191508160000160009054906101000a900460ff1615610dd357610c5c8260000160019054906101000a900473ffffffffffffffffffffffffffffffffffffffff16836001018054600181600116156101000203166002900480601f016020809104026020016040519081016040528092919081815260200182805460018160011615610100020316600290048015610c525780601f10610c2757610100808354040283529160200191610c52565b820191906000526020600020905b815481529060010190602001808311610c3557829003601f168201915b5050505050610f64565b9050801515610dd2578160000160019054906101000a900473ffffffffffffffffffffffffffffffffffffffff1673ffffffffffffffffffffffffffffffffffffffff167f8091ecaaa54ebb82e02d36c2c336528e0fcb9b3430fc1291ac88295032b9c26384846001016040518083815260200180602001828103825283818154600181600116156101000203166002900481526020019150805460018160011615610100020316600290048015610d555780601f10610d2a57610100808354040283529160200191610d55565b820191906000526020600020905b815481529060010190602001808311610d3857829003601f168201915b5050935050505060405180910390a26040517f08c379a00000000000000000000000000000000000000000000000000000000081526004018080602001828103825260128152602001807f5472616e73616374696f6e204661696c6564000000000000000000000000000081525060200191505060405180910390fd5b5b8280600101935050610b4f565b505050565b60008060019054906101000a900460ff1680610e055750610e04610f8b565b5b80610e1c57506000809054906101000a900460ff16155b1515610e90576040517f08c379a000000000000000000000000000000000000000000000000000000000815260040180806020018281038252601c8152602001807f436f6e747261637420616c726561647920696e697469616c697a65640000000081525060200191505060405180910390fd5b600060019054906101000a900460ff161590508015610edf576001600060016101000a81548160ff02191690831515021790555060016000806101000a81548160ff0219169083151502179055505b81603360006101000a81548173ffffffffffffffffffffffffffffffffffffffff021916908373ffffffffffffffffffffffffffffffffffffffff1602179055508015610f415760008060016101000a81548160ff0219169083151502179055505b5050565b610f4d61090a565b1515610f5857600080fd5b610f6181610fa2565b50565b6000806040516020840160008286518360008a6187965a03f1925050508091505092915050565b6000806000309150813b9050600081149250505090565b600073ffffffffffffffffffffffffffffffffffffffff168173ffffffffffffffffffffffffffffffffffffffff1614151515610fde57600080fd5b8073ffffffffffffffffffffffffffffffffffffffff16603360009054906101000a900473ffffffffffffffffffffffffffffffffffffffff1673ffffffffffffffffffffffffffffffffffffffff167f8be0079c531659141344cd1fd0a4f28419497f9722a3daafe3b4186f6b6457e060405160405180910390a380603360006101000a81548173ffffffffffffffffffffffffffffffffffffffff021916908373ffffffffffffffffffffffffffffffffffffffff16021790555050565b828054600181600116156101000203166002900490600052602060002090601f016020900481019282601f106110df57805160ff191683800117855561110d565b8280016001018555821561110d579182015b8281111561110c5782518255916020019190600101906110f1565b5b50905061111a91906111d7565b5090565b828054600181600116156101000203166002900490600052602060002090601f016020900481019282601f106111575780548555611194565b8280016001018555821561119457600052602060002091601f016020900482015b82811115611193578254825591600101919060010190611178565b5b5090506111a191906111d7565b5090565b8154818355818111156111d2576002028160020283600052602060002091820191016111d191906111fc565b5b505050565b6111f991905b808211156111f55760008160009055506001016111dd565b5090565b90565b61126391905b8082111561125f57600080820160006101000a81549060ff02191690556000820160016101000a81549073ffffffffffffffffffffffffffffffffffffffff02191690556001820160006112569190611266565b50600201611202565b5090565b90565b50805460018160011615610100020316600290046000825580601f1061128c57506112ab565b601f0160209004906000526020600020908101906112aa91906111d7565b5b505600a165627a7a72305820abadc5da057a886fc9b68d9e6d8dca15e9d7c527906246404e3e8f9b419baf340029",
  "source": "pragma solidity 0.4.24;\n\n// import \"openzeppelin-eth/contracts/ownership/Ownable.sol\";\nimport \"../node_modules/openzeppelin-eth/contracts/ownership/Ownable.sol\";\n\nimport \"./UFragmentsPolicy.sol\";\n// import \"./Ownable.sol\";\n\n\n/**\n * @title Orchestrator\n * @notice The orchestrator is the main entry point for rebase operations. It coordinates the policy\n * actions with external consumers.\n */\ncontract Orchestrator is Ownable {\n\n    struct Transaction {\n        bool enabled;\n        address destination;\n        bytes data;\n    }\n\n    event TransactionFailed(address indexed destination, uint index, bytes data);\n\n    // Stable ordering is not guaranteed.\n    Transaction[] public transactions;\n\n    UFragmentsPolicy public policy;\n\n    /**\n     * @param policy_ Address of the UFragments policy.\n     */\n\n    constructor(address policy_) public {\n        Ownable.initialize(msg.sender);\n        policy = UFragmentsPolicy(policy_);\n    }\n\n    /**\n     * @notice Main entry point to initiate a rebase operation.\n     *         The Orchestrator calls rebase on the policy and notifies downstream applications.\n     *         Contracts are guarded from calling, to avoid flash loan attacks on liquidity\n     *         providers.\n     *         If a transaction in the transaction list reverts, it is swallowed and the remaining\n     *         transactions are executed.\n     */\n    function rebase()\n        external\n    {\n        require(msg.sender == tx.origin);  // solhint-disable-line avoid-tx-origin\n\n        policy.rebase();\n\n        for (uint i = 0; i < transactions.length; i++) {\n            Transaction storage t = transactions[i];\n            if (t.enabled) {\n                bool result =\n                    externalCall(t.destination, t.data);\n                if (!result) {\n                    emit TransactionFailed(t.destination, i, t.data);\n                    revert(\"Transaction Failed\");\n                }\n            }\n        }\n    }\n\n    /**\n     * @notice Adds a transaction that gets called for a downstream receiver of rebases\n     * @param destination Address of contract destination\n     * @param data Transaction data payload\n     */\n    function addTransaction(address destination, bytes data)\n        external\n        onlyOwner\n    {\n        transactions.push(Transaction({\n            enabled: true,\n            destination: destination,\n            data: data\n        }));\n    }\n\n    /**\n     * @param index Index of transaction to remove.\n     *              Transaction ordering may have changed since adding.\n     */\n    function removeTransaction(uint index)\n        external\n        onlyOwner\n    {\n        require(index < transactions.length, \"index out of bounds\");\n\n        if (index < transactions.length - 1) {\n            transactions[index] = transactions[transactions.length - 1];\n        }\n\n        transactions.length--;\n    }\n\n    /**\n     * @param index Index of transaction. Transaction ordering may have changed since adding.\n     * @param enabled True for enabled, false for disabled.\n     */\n    function setTransactionEnabled(uint index, bool enabled)\n        external\n        onlyOwner\n    {\n        require(index < transactions.length, \"index must be in range of stored tx list\");\n        transactions[index].enabled = enabled;\n    }\n\n    /**\n     * @return Number of transactions, both enabled and disabled, in transactions list.\n     */\n    function transactionsSize()\n        external\n        view\n        returns (uint256)\n    {\n        return transactions.length;\n    }\n\n    /**\n     * @dev wrapper to call the encoded transactions on downstream consumers.\n     * @param destination Address of destination contract.\n     * @param data The encoded data payload.\n     * @return True on success\n     */\n    function externalCall(address destination, bytes data)\n        internal\n        returns (bool)\n    {\n        bool result;\n        assembly {  // solhint-disable-line no-inline-assembly\n            // \"Allocate\" memory for output\n            // (0x40 is where \"free memory\" pointer is stored by convention)\n            let outputAddress := mload(0x40)\n\n            // First 32 bytes are the padded length of data, so exclude that\n            let dataAddress := add(data, 32)\n\n            result := call(\n                // 34710 is the value that solidity is currently emitting\n                // It includes callGas (700) + callVeryLow (3, to pay for SUB)\n                // + callValueTransferGas (9000) + callNewAccountGas\n                // (25000, in case the destination address does not exist and needs creating)\n                sub(gas, 34710),\n\n\n                destination,\n                0, // transfer value in wei\n                dataAddress,\n                mload(data),  // Size of the input, in bytes. Stored in position 0 of the array.\n                outputAddress,\n                0  // Output is ignored, therefore the output size is zero\n            )\n        }\n        return result;\n    }\n}\n",
  "sourcePath": "/home/codezeros/Music/AMPL/uFragments/contracts/Orchestrator.sol",
  "compiler": {
    "name": "solc",
    "version": "0.4.24+commit.e67f0147.Emscripten.clang"
  },
  "schemaVersion": "2.0.1",
  "updatedAt": "2020-08-21T08:02:06.024Z"
}