{
  "contractName": "RebaseCallerContract",
  "abi": [
    {
      "constant": false,
      "inputs": [
        {
          "name": "orchestrator",
          "type": "address"
        }
      ],
      "name": "callRebase",
      "outputs": [
        {
          "name": "",
          "type": "bool"
        }
      ],
      "payable": false,
      "stateMutability": "nonpayable",
      "type": "function"
    }
  ],
  "bytecode": "0x608060405234801561001057600080fd5b50610154806100206000396000f300608060405260043610610041576000357c0100000000000000000000000000000000000000000000000000000000900463ffffffff168063e6631c6314610046575b600080fd5b34801561005257600080fd5b50610087600480360381019080803573ffffffffffffffffffffffffffffffffffffffff1690602001909291905050506100a1565b604051808215151515815260200191505060405180910390f35b60008173ffffffffffffffffffffffffffffffffffffffff1663af14052c6040518163ffffffff167c0100000000000000000000000000000000000000000000000000000000028152600401600060405180830381600087803b15801561010757600080fd5b505af115801561011b573d6000803e3d6000fd5b50505050600190509190505600a165627a7a72305820f7651c5b3d1b2a3400bf2edaac97386248a6e2ac57ffbb7876dd1255cf463f740029",
  "source": "pragma solidity 0.4.24;\n\nimport \"../Orchestrator.sol\";\n\n\ncontract RebaseCallerContract {\n\n    function callRebase(address orchestrator) public returns (bool) {\n        // Take out a flash loan.\n        // Do something funky...\n        Orchestrator(orchestrator).rebase();  // should fail\n        // pay back flash loan.\n        return true;\n    }\n}\n",
  "sourcePath": "/home/codezeros/Music/AMPL/uFragments/contracts/mocks/RebaseCallerContract.sol",
  "compiler": {
    "name": "solc",
    "version": "0.4.24+commit.e67f0147.Emscripten.clang"
  },
  "schemaVersion": "2.0.1",
  "updatedAt": "2020-08-21T08:02:06.038Z"
}