{
  "contractName": "UFragmentsPolicy",
  "abi": [
    {
      "constant": true,
      "inputs": [],
      "name": "minRebaseTimeIntervalSec",
      "outputs": [
        {
          "name": "",
          "type": "uint256"
        }
      ],
      "payable": false,
      "stateMutability": "view",
      "type": "function"
    },
    {
      "constant": true,
      "inputs": [],
      "name": "lastRebaseTimestampSec",
      "outputs": [
        {
          "name": "",
          "type": "uint256"
        }
      ],
      "payable": false,
      "stateMutability": "view",
      "type": "function"
    },
    {
      "constant": true,
      "inputs": [],
      "name": "marketOracle",
      "outputs": [
        {
          "name": "",
          "type": "address"
        }
      ],
      "payable": false,
      "stateMutability": "view",
      "type": "function"
    },
    {
      "constant": true,
      "inputs": [],
      "name": "rebaseLag",
      "outputs": [
        {
          "name": "",
          "type": "uint256"
        }
      ],
      "payable": false,
      "stateMutability": "view",
      "type": "function"
    },
    {
      "constant": true,
      "inputs": [],
      "name": "rebaseWindowOffsetSec",
      "outputs": [
        {
          "name": "",
          "type": "uint256"
        }
      ],
      "payable": false,
      "stateMutability": "view",
      "type": "function"
    },
    {
      "constant": false,
      "inputs": [],
      "name": "renounceOwnership",
      "outputs": [],
      "payable": false,
      "stateMutability": "nonpayable",
      "type": "function"
    },
    {
      "constant": true,
      "inputs": [],
      "name": "owner",
      "outputs": [
        {
          "name": "",
          "type": "address"
        }
      ],
      "payable": false,
      "stateMutability": "view",
      "type": "function"
    },
    {
      "constant": true,
      "inputs": [],
      "name": "isOwner",
      "outputs": [
        {
          "name": "",
          "type": "bool"
        }
      ],
      "payable": false,
      "stateMutability": "view",
      "type": "function"
    },
    {
      "constant": true,
      "inputs": [],
      "name": "epoch",
      "outputs": [
        {
          "name": "",
          "type": "uint256"
        }
      ],
      "payable": false,
      "stateMutability": "view",
      "type": "function"
    },
    {
      "constant": true,
      "inputs": [],
      "name": "rebaseWindowLengthSec",
      "outputs": [
        {
          "name": "",
          "type": "uint256"
        }
      ],
      "payable": false,
      "stateMutability": "view",
      "type": "function"
    },
    {
      "constant": true,
      "inputs": [],
      "name": "cpiOracle",
      "outputs": [
        {
          "name": "",
          "type": "address"
        }
      ],
      "payable": false,
      "stateMutability": "view",
      "type": "function"
    },
    {
      "constant": true,
      "inputs": [],
      "name": "orchestrator",
      "outputs": [
        {
          "name": "",
          "type": "address"
        }
      ],
      "payable": false,
      "stateMutability": "view",
      "type": "function"
    },
    {
      "constant": true,
      "inputs": [],
      "name": "uFrags",
      "outputs": [
        {
          "name": "",
          "type": "address"
        }
      ],
      "payable": false,
      "stateMutability": "view",
      "type": "function"
    },
    {
      "constant": true,
      "inputs": [],
      "name": "deviationThreshold",
      "outputs": [
        {
          "name": "",
          "type": "uint256"
        }
      ],
      "payable": false,
      "stateMutability": "view",
      "type": "function"
    },
    {
      "constant": false,
      "inputs": [
        {
          "name": "newOwner",
          "type": "address"
        }
      ],
      "name": "transferOwnership",
      "outputs": [],
      "payable": false,
      "stateMutability": "nonpayable",
      "type": "function"
    },
    {
      "anonymous": false,
      "inputs": [
        {
          "indexed": true,
          "name": "epoch",
          "type": "uint256"
        },
        {
          "indexed": false,
          "name": "exchangeRate",
          "type": "uint256"
        },
        {
          "indexed": false,
          "name": "cpi",
          "type": "uint256"
        },
        {
          "indexed": false,
          "name": "requestedSupplyAdjustment",
          "type": "int256"
        },
        {
          "indexed": false,
          "name": "timestampSec",
          "type": "uint256"
        }
      ],
      "name": "LogRebase",
      "type": "event"
    },
    {
      "anonymous": false,
      "inputs": [
        {
          "indexed": true,
          "name": "previousOwner",
          "type": "address"
        }
      ],
      "name": "OwnershipRenounced",
      "type": "event"
    },
    {
      "anonymous": false,
      "inputs": [
        {
          "indexed": true,
          "name": "previousOwner",
          "type": "address"
        },
        {
          "indexed": true,
          "name": "newOwner",
          "type": "address"
        }
      ],
      "name": "OwnershipTransferred",
      "type": "event"
    },
    {
      "constant": false,
      "inputs": [],
      "name": "rebase",
      "outputs": [],
      "payable": false,
      "stateMutability": "nonpayable",
      "type": "function"
    },
    {
      "constant": false,
      "inputs": [
        {
          "name": "cpiOracle_",
          "type": "address"
        }
      ],
      "name": "setCpiOracle",
      "outputs": [],
      "payable": false,
      "stateMutability": "nonpayable",
      "type": "function"
    },
    {
      "constant": false,
      "inputs": [
        {
          "name": "marketOracle_",
          "type": "address"
        }
      ],
      "name": "setMarketOracle",
      "outputs": [],
      "payable": false,
      "stateMutability": "nonpayable",
      "type": "function"
    },
    {
      "constant": false,
      "inputs": [
        {
          "name": "orchestrator_",
          "type": "address"
        }
      ],
      "name": "setOrchestrator",
      "outputs": [],
      "payable": false,
      "stateMutability": "nonpayable",
      "type": "function"
    },
    {
      "constant": false,
      "inputs": [
        {
          "name": "deviationThreshold_",
          "type": "uint256"
        }
      ],
      "name": "setDeviationThreshold",
      "outputs": [],
      "payable": false,
      "stateMutability": "nonpayable",
      "type": "function"
    },
    {
      "constant": false,
      "inputs": [
        {
          "name": "rebaseLag_",
          "type": "uint256"
        }
      ],
      "name": "setRebaseLag",
      "outputs": [],
      "payable": false,
      "stateMutability": "nonpayable",
      "type": "function"
    },
    {
      "constant": false,
      "inputs": [
        {
          "name": "minRebaseTimeIntervalSec_",
          "type": "uint256"
        },
        {
          "name": "rebaseWindowOffsetSec_",
          "type": "uint256"
        },
        {
          "name": "rebaseWindowLengthSec_",
          "type": "uint256"
        }
      ],
      "name": "setRebaseTimingParameters",
      "outputs": [],
      "payable": false,
      "stateMutability": "nonpayable",
      "type": "function"
    },
    {
      "constant": false,
      "inputs": [
        {
          "name": "owner_",
          "type": "address"
        },
        {
          "name": "uFrags_",
          "type": "address"
        },
        {
          "name": "baseCpi_",
          "type": "uint256"
        }
      ],
      "name": "initialize",
      "outputs": [],
      "payable": false,
      "stateMutability": "nonpayable",
      "type": "function"
    },
    {
      "constant": false,
      "inputs": [
        {
          "name": "sender",
          "type": "address"
        }
      ],
      "name": "initialize",
      "outputs": [],
      "payable": false,
      "stateMutability": "nonpayable",
      "type": "function"
    },
    {
      "constant": true,
      "inputs": [],
      "name": "inRebaseWindow",
      "outputs": [
        {
          "name": "",
          "type": "bool"
        }
      ],
      "payable": false,
      "stateMutability": "view",
      "type": "function"
    }
  ],
  "bytecode": "0x608060405234801561001057600080fd5b50611975806100206000396000f300608060405260043610610149576000357c0100000000000000000000000000000000000000000000000000000000900463ffffffff168063021018991461014e578063111d04981461017957806316250fd4146101a85780631794bb3c146101e957806320ce8389146102565780633a93069b146102835780633d6a46e5146102ae57806353a15edc146102f1578063609615281461031e57806363f6d4c8146103755780637052b902146103a0578063715018a6146103cb5780638da5cb5b146103e25780638f32d59b14610439578063900cf0cf146104685780639466120f146104935780639e30bac5146104be578063ab33c5ca14610501578063af14052c14610558578063b74795d91461056f578063c4d66de8146105c6578063cd28ef0d14610609578063d3d55d511461064c578063d94ad837146106a3578063f2fde38b146106ce575b600080fd5b34801561015a57600080fd5b50610163610711565b6040518082815260200191505060405180910390f35b34801561018557600080fd5b5061018e610717565b604051808215151515815260200191505060405180910390f35b3480156101b457600080fd5b506101e760048036038101908080359060200190929190803590602001909291908035906020019092919050505061076d565b005b3480156101f557600080fd5b50610254600480360381019080803573ffffffffffffffffffffffffffffffffffffffff169060200190929190803573ffffffffffffffffffffffffffffffffffffffff169060200190929190803590602001909291905050506107b7565b005b34801561026257600080fd5b506102816004803603810190808035906020019092919050505061096f565b005b34801561028f57600080fd5b5061029861099b565b6040518082815260200191505060405180910390f35b3480156102ba57600080fd5b506102ef600480360381019080803573ffffffffffffffffffffffffffffffffffffffff1690602001909291905050506109a1565b005b3480156102fd57600080fd5b5061031c600480360381019080803590602001909291905050506109f8565b005b34801561032a57600080fd5b50610333610a15565b604051808273ffffffffffffffffffffffffffffffffffffffff1673ffffffffffffffffffffffffffffffffffffffff16815260200191505060405180910390f35b34801561038157600080fd5b5061038a610a3b565b6040518082815260200191505060405180910390f35b3480156103ac57600080fd5b506103b5610a41565b6040518082815260200191505060405180910390f35b3480156103d757600080fd5b506103e0610a47565b005b3480156103ee57600080fd5b506103f7610b03565b604051808273ffffffffffffffffffffffffffffffffffffffff1673ffffffffffffffffffffffffffffffffffffffff16815260200191505060405180910390f35b34801561044557600080fd5b5061044e610b2d565b604051808215151515815260200191505060405180910390f35b34801561047457600080fd5b5061047d610b85565b6040518082815260200191505060405180910390f35b34801561049f57600080fd5b506104a8610b8b565b6040518082815260200191505060405180910390f35b3480156104ca57600080fd5b506104ff600480360381019080803573ffffffffffffffffffffffffffffffffffffffff169060200190929190505050610b91565b005b34801561050d57600080fd5b50610516610be8565b604051808273ffffffffffffffffffffffffffffffffffffffff1673ffffffffffffffffffffffffffffffffffffffff16815260200191505060405180910390f35b34801561056457600080fd5b5061056d610c0e565b005b34801561057b57600080fd5b50610584611295565b604051808273ffffffffffffffffffffffffffffffffffffffff1673ffffffffffffffffffffffffffffffffffffffff16815260200191505060405180910390f35b3480156105d257600080fd5b50610607600480360381019080803573ffffffffffffffffffffffffffffffffffffffff1690602001909291905050506112bb565b005b34801561061557600080fd5b5061064a600480360381019080803573ffffffffffffffffffffffffffffffffffffffff16906020019092919050505061141b565b005b34801561065857600080fd5b50610661611472565b604051808273ffffffffffffffffffffffffffffffffffffffff1673ffffffffffffffffffffffffffffffffffffffff16815260200191505060405180910390f35b3480156106af57600080fd5b506106b8611498565b6040518082815260200191505060405180910390f35b3480156106da57600080fd5b5061070f600480360381019080803573ffffffffffffffffffffffffffffffffffffffff16906020019092919050505061149e565b005b606c5481565b6000606e54610731606c54426114bd90919063ffffffff16565b101580156107685750610751606f54606e546114d190919063ffffffff16565b610766606c54426114bd90919063ffffffff16565b105b905090565b610775610b2d565b151561078057600080fd5b60008311151561078f57600080fd5b828210151561079d57600080fd5b82606c8190555081606e8190555080606f81905550505050565b60008060019054906101000a900460ff16806107d757506107d66114ed565b5b806107ee57506000809054906101000a900460ff16155b1515610862576040517f08c379a000000000000000000000000000000000000000000000000000000000815260040180806020018281038252601c8152602001807f436f6e747261637420616c726561647920696e697469616c697a65640000000081525060200191505060405180910390fd5b600060019054906101000a900460ff1615905080156108b1576001600060016101000a81548160ff02191690831515021790555060016000806101000a81548160ff0219169083151502179055505b6108ba846112bb565b6002601203600a0a600502606a81905550601e606b8190555062015180606c8190555062011940606e81905550610384606f819055506000606d81905550600060708190555082606660006101000a81548173ffffffffffffffffffffffffffffffffffffffff021916908373ffffffffffffffffffffffffffffffffffffffff1602179055508160698190555080156109695760008060016101000a81548160ff0219169083151502179055505b50505050565b610977610b2d565b151561098257600080fd5b60008111151561099157600080fd5b80606b8190555050565b606d5481565b6109a9610b2d565b15156109b457600080fd5b80606760006101000a81548173ffffffffffffffffffffffffffffffffffffffff021916908373ffffffffffffffffffffffffffffffffffffffff16021790555050565b610a00610b2d565b1515610a0b57600080fd5b80606a8190555050565b606860009054906101000a900473ffffffffffffffffffffffffffffffffffffffff1681565b606b5481565b606e5481565b610a4f610b2d565b1515610a5a57600080fd5b603360009054906101000a900473ffffffffffffffffffffffffffffffffffffffff1673ffffffffffffffffffffffffffffffffffffffff167ff8df31144d9c2f0f6b59d69b8b98abd5459d07f2742c4df920b25aae33c6482060405160405180910390a26000603360006101000a81548173ffffffffffffffffffffffffffffffffffffffff021916908373ffffffffffffffffffffffffffffffffffffffff160217905550565b6000603360009054906101000a900473ffffffffffffffffffffffffffffffffffffffff16905090565b6000603360009054906101000a900473ffffffffffffffffffffffffffffffffffffffff1673ffffffffffffffffffffffffffffffffffffffff163373ffffffffffffffffffffffffffffffffffffffff1614905090565b60705481565b606f5481565b610b99610b2d565b1515610ba457600080fd5b80606860006101000a81548173ffffffffffffffffffffffffffffffffffffffff021916908373ffffffffffffffffffffffffffffffffffffffff16021790555050565b606760009054906101000a900473ffffffffffffffffffffffffffffffffffffffff1681565b6000806000806000806000607160009054906101000a900473ffffffffffffffffffffffffffffffffffffffff1673ffffffffffffffffffffffffffffffffffffffff163373ffffffffffffffffffffffffffffffffffffffff16141515610c7557600080fd5b610c7d610717565b1515610c8857600080fd5b42610ca0606c54606d546114d190919063ffffffff16565b101515610cac57600080fd5b610ce7606e54610cd9610cca606c54426114bd90919063ffffffff16565b4261150490919063ffffffff16565b6114d190919063ffffffff16565b606d81905550610d0360016070546114d190919063ffffffff16565b607081905550606760009054906101000a900473ffffffffffffffffffffffffffffffffffffffff1673ffffffffffffffffffffffffffffffffffffffff16633bc5de306040518163ffffffff167c01000000000000000000000000000000000000000000000000000000000281526004016040805180830381600087803b158015610d8e57600080fd5b505af1158015610da2573d6000803e3d6000fd5b505050506040513d6040811015610db857600080fd5b8101908080519060200190929190805190602001909291905050508097508198505050851515610de757600080fd5b610e12606954610e046012600a0a8a61151d90919063ffffffff16565b61155590919063ffffffff16565b9450606860009054906101000a900473ffffffffffffffffffffffffffffffffffffffff1673ffffffffffffffffffffffffffffffffffffffff16633bc5de306040518163ffffffff167c01000000000000000000000000000000000000000000000000000000000281526004016040805180830381600087803b158015610e9957600080fd5b505af1158015610ead573d6000803e3d6000fd5b505050506040513d6040811015610ec357600080fd5b8101908080519060200190929190805190602001909291905050508094508195505050821515610ef257600080fd5b6012600a0a620f424002841115610f10576012600a0a620f42400293505b610f1a848661156b565b9150610f39610f2a606b546116a2565b836116c490919063ffffffff16565b915060008213801561103957506012600a0a620f42400260ff60019060020a0219811515610f6357fe5b0461103783606660009054906101000a900473ffffffffffffffffffffffffffffffffffffffff1673ffffffffffffffffffffffffffffffffffffffff166318160ddd6040518163ffffffff167c0100000000000000000000000000000000000000000000000000000000028152600401602060405180830381600087803b158015610fee57600080fd5b505af1158015611002573d6000803e3d6000fd5b505050506040513d602081101561101857600080fd5b81019080805190602001909291905050506114d190919063ffffffff16565b115b1561113957611136611131606660009054906101000a900473ffffffffffffffffffffffffffffffffffffffff1673ffffffffffffffffffffffffffffffffffffffff166318160ddd6040518163ffffffff167c0100000000000000000000000000000000000000000000000000000000028152600401602060405180830381600087803b1580156110ca57600080fd5b505af11580156110de573d6000803e3d6000fd5b505050506040513d60208110156110f457600080fd5b81019080805190602001909291905050506012600a0a620f42400260ff60019060020a021981151561112257fe5b0461150490919063ffffffff16565b6116a2565b91505b606660009054906101000a900473ffffffffffffffffffffffffffffffffffffffff1673ffffffffffffffffffffffffffffffffffffffff16637a43e23f607054846040518363ffffffff167c01000000000000000000000000000000000000000000000000000000000281526004018083815260200182815260200192505050602060405180830381600087803b1580156111d457600080fd5b505af11580156111e8573d6000803e3d6000fd5b505050506040513d60208110156111fe57600080fd5b810190808051906020019092919050505090506012600a0a620f42400260ff60019060020a021981151561122e57fe5b04811115151561123a57fe5b6070547f41d948a7f29cc695f5d4b3ec147f766bffa165ddd317470fbe05c86d0a9c3e04858985426040518085815260200184815260200183815260200182815260200194505050505060405180910390a250505050505050565b607160009054906101000a900473ffffffffffffffffffffffffffffffffffffffff1681565b60008060019054906101000a900460ff16806112db57506112da6114ed565b5b806112f257506000809054906101000a900460ff16155b1515611366576040517f08c379a000000000000000000000000000000000000000000000000000000000815260040180806020018281038252601c8152602001807f436f6e747261637420616c726561647920696e697469616c697a65640000000081525060200191505060405180910390fd5b600060019054906101000a900460ff1615905080156113b5576001600060016101000a81548160ff02191690831515021790555060016000806101000a81548160ff0219169083151502179055505b81603360006101000a81548173ffffffffffffffffffffffffffffffffffffffff021916908373ffffffffffffffffffffffffffffffffffffffff16021790555080156114175760008060016101000a81548160ff0219169083151502179055505b5050565b611423610b2d565b151561142e57600080fd5b80607160006101000a81548173ffffffffffffffffffffffffffffffffffffffff021916908373ffffffffffffffffffffffffffffffffffffffff16021790555050565b606660009054906101000a900473ffffffffffffffffffffffffffffffffffffffff1681565b606a5481565b6114a6610b2d565b15156114b157600080fd5b6114ba8161171c565b50565b60006114c983836114bd565b905092915050565b600081830190508281101515156114e457fe5b80905092915050565b6000806000309150813b9050600081149250505090565b600082821115151561151257fe5b818303905092915050565b600080831415611530576000905061154f565b818302905081838281151561154157fe5b0414151561154b57fe5b8090505b92915050565b6000818381151561156257fe5b04905092915050565b6000806115788484611818565b15611586576000915061169b565b61158f836116a2565b90506116988161168a6115b3846115a5896116a2565b61189990919063ffffffff16565b61167c606660009054906101000a900473ffffffffffffffffffffffffffffffffffffffff1673ffffffffffffffffffffffffffffffffffffffff166318160ddd6040518163ffffffff167c0100000000000000000000000000000000000000000000000000000000028152600401602060405180830381600087803b15801561163c57600080fd5b505af1158015611650573d6000803e3d6000fd5b505050506040513d602081101561166657600080fd5b81019080805190602001909291905050506116a2565b6118dd90919063ffffffff16565b6116c490919063ffffffff16565b91505b5092915050565b600060ff60019060020a021982111515156116bc57600080fd5b819050919050565b60007fffffffffffffffffffffffffffffffffffffffffffffffffffffffffffffffff821415806116fd575060ff60019060020a028314155b151561170857600080fd5b818381151561171357fe5b05905092915050565b600073ffffffffffffffffffffffffffffffffffffffff168173ffffffffffffffffffffffffffffffffffffffff161415151561175857600080fd5b8073ffffffffffffffffffffffffffffffffffffffff16603360009054906101000a900473ffffffffffffffffffffffffffffffffffffffff1673ffffffffffffffffffffffffffffffffffffffff167f8be0079c531659141344cd1fd0a4f28419497f9722a3daafe3b4186f6b6457e060405160405180910390a380603360006101000a81548173ffffffffffffffffffffffffffffffffffffffff021916908373ffffffffffffffffffffffffffffffffffffffff16021790555050565b6000806118466012600a0a611838606a548661151d90919063ffffffff16565b61155590919063ffffffff16565b9050828410158015611869575080611867848661150490919063ffffffff16565b105b806118905750828410801561188f57508061188d858561150490919063ffffffff16565b105b5b91505092915050565b6000808284039050600083121580156118b25750838113155b806118c857506000831280156118c757508381135b5b15156118d357600080fd5b8091505092915050565b600080828402905060ff60019060020a0281141580611910575060ff60019060020a02831660ff60019060020a02851614155b151561191b57600080fd5b6000831480611934575083838281151561193157fe5b05145b151561193f57600080fd5b80915050929150505600a165627a7a723058200917f4aeacb473d1e2708ab773ea6b006102e2e07ae00daa1f28b2e811b2dcb10029",
  "source": "pragma solidity 0.4.24;\n\n// import \"openzeppelin-eth/contracts/math/SafeMath.sol\";\n// import \"openzeppelin-eth/contracts/ownership/Ownable.sol\";\nimport \"../node_modules/openzeppelin-eth/contracts/ownership/Ownable.sol\";\n\nimport \"./lib/SafeMathInt.sol\"; //from lib\nimport \"./lib/UInt256Lib.sol\";\nimport \"./UFragments.sol\";\nimport \"./SafeMath.sol\";\n// import \"./Ownable.sol\";\n\n\ninterface IOracle {\n    function getData() external returns (uint256, bool);\n}\n\n\n/**\n * @title uFragments Monetary Supply Policy\n * @dev This is an implementation of the uFragments Ideal Money protocol.\n *      uFragments operates symmetrically on expansion and contraction. It will both split and\n *      combine coins to maintain a stable unit price.\n *\n *      This component regulates the token supply of the uFragments ERC20 token in response to\n *      market oracles.\n */\ncontract UFragmentsPolicy is Ownable {\n    using SafeMath for uint256;\n    using SafeMathInt for int256;\n    using UInt256Lib for uint256;\n\n    event LogRebase(\n        uint256 indexed epoch,\n        uint256 exchangeRate,\n        uint256 cpi,\n        int256 requestedSupplyAdjustment,\n        uint256 timestampSec\n    );\n\n    UFragments public uFrags;\n\n    // Provides the current CPI, as an 18 decimal fixed point number.\n    IOracle public cpiOracle;\n\n    // Market oracle provides the token/USD exchange rate as an 18 decimal fixed point number.\n    // (eg) An oracle value of 1.5e18 it would mean 1 Ample is trading for $1.50.\n    IOracle public marketOracle;\n\n    // CPI value at the time of launch, as an 18 decimal fixed point number.\n    uint256 private baseCpi;\n\n    // If the current exchange rate is within this fractional distance from the target, no supply\n    // update is performed. Fixed point number--same format as the rate.\n    // (ie) abs(rate - targetRate) / targetRate < deviationThreshold, then no supply change.\n    // DECIMALS Fixed point number.\n    uint256 public deviationThreshold;\n\n    // The rebase lag parameter, used to dampen the applied supply adjustment by 1 / rebaseLag\n    // Check setRebaseLag comments for more details.\n    // Natural number, no decimal places.\n    uint256 public rebaseLag;\n\n    // More than this much time must pass between rebase operations.\n    uint256 public minRebaseTimeIntervalSec;\n\n    // Block timestamp of last rebase operation\n    uint256 public lastRebaseTimestampSec;\n\n    // The rebase window begins this many seconds into the minRebaseTimeInterval period.\n    // For example if minRebaseTimeInterval is 24hrs, it represents the time of day in seconds.\n    uint256 public rebaseWindowOffsetSec;\n\n    // The length of the time window where a rebase operation is allowed to execute, in seconds.\n    uint256 public rebaseWindowLengthSec;\n\n    // The number of rebase cycles since inception\n    uint256 public epoch;\n\n    uint256 private constant DECIMALS = 18;\n\n    // Due to the expression in computeSupplyDelta(), MAX_RATE * MAX_SUPPLY must fit into an int256.\n    // Both are 18 decimals fixed point numbers.\n    uint256 private constant MAX_RATE = 10**6 * 10**DECIMALS;\n    // MAX_SUPPLY = MAX_INT256 / MAX_RATE\n    uint256 private constant MAX_SUPPLY = ~(uint256(1) << 255) / MAX_RATE;\n\n    // This module orchestrates the rebase execution and downstream notification.\n    address public orchestrator;\n\n    modifier onlyOrchestrator() {\n        require(msg.sender == orchestrator);\n        _;\n    }\n\n    /**\n     * @notice Initiates a new rebase operation, provided the minimum time period has elapsed.\n     *\n     * @dev The supply adjustment equals (_totalSupply * DeviationFromTargetRate) / rebaseLag\n     *      Where DeviationFromTargetRate is (MarketOracleRate - targetRate) / targetRate\n     *      and targetRate is CpiOracleRate / baseCpi\n     */\n    function rebase() external onlyOrchestrator {\n        require(inRebaseWindow());\n\n        // This comparison also ensures there is no reentrancy.\n        require(lastRebaseTimestampSec.add(minRebaseTimeIntervalSec) < now);\n\n        // Snap the rebase time to the start of this window.\n        lastRebaseTimestampSec = now.sub(\n            now.mod(minRebaseTimeIntervalSec)).add(rebaseWindowOffsetSec);\n\n        epoch = epoch.add(1);\n\n        uint256 cpi;\n        bool cpiValid;\n        (cpi, cpiValid) = cpiOracle.getData();\n        require(cpiValid);\n\n        uint256 targetRate = cpi.mul(10 ** DECIMALS).div(baseCpi);\n\n        uint256 exchangeRate;\n        bool rateValid;\n        (exchangeRate, rateValid) = marketOracle.getData();\n        require(rateValid);\n\n        if (exchangeRate > MAX_RATE) {\n            exchangeRate = MAX_RATE;\n        }\n\n        // Calculating supplyDelta amit\n        int256 supplyDelta = computeSupplyDelta(exchangeRate, targetRate);\n\n\n\n\n\n\n        // Apply the Dampening factor.\n        supplyDelta = supplyDelta.div(rebaseLag.toInt256Safe());\n\n\n\n\n\n\n        if (supplyDelta > 0 && uFrags.totalSupply().add(uint256(supplyDelta)) > MAX_SUPPLY) {\n            supplyDelta = (MAX_SUPPLY.sub(uFrags.totalSupply())).toInt256Safe();\n        }\n\n        uint256 supplyAfterRebase = uFrags.rebase(epoch, supplyDelta);\n        assert(supplyAfterRebase <= MAX_SUPPLY);\n        emit LogRebase(epoch, exchangeRate, cpi, supplyDelta, now);\n    }\n\n    /**\n     * @notice Sets the reference to the CPI oracle.\n     * @param cpiOracle_ The address of the cpi oracle contract.\n     */\n    function setCpiOracle(IOracle cpiOracle_)\n        external\n        onlyOwner\n    {\n        cpiOracle = cpiOracle_;\n    }\n\n    /**\n     * @notice Sets the reference to the market oracle.\n     * @param marketOracle_ The address of the market oracle contract.\n     */\n    function setMarketOracle(IOracle marketOracle_)\n        external\n        onlyOwner\n    {\n        marketOracle = marketOracle_;\n    }\n\n    /**\n     * @notice Sets the reference to the orchestrator.\n     * @param orchestrator_ The address of the orchestrator contract.\n     */\n    function setOrchestrator(address orchestrator_)\n        external\n        onlyOwner\n    {\n        orchestrator = orchestrator_;\n    }\n\n    /**\n     * @notice Sets the deviation threshold fraction. If the exchange rate given by the market\n     *         oracle is within this fractional distance from the targetRate, then no supply\n     *         modifications are made. DECIMALS fixed point number.\n     * @param deviationThreshold_ The new exchange rate threshold fraction.\n     */\n    function setDeviationThreshold(uint256 deviationThreshold_)\n        external\n        onlyOwner\n    {\n        deviationThreshold = deviationThreshold_;\n    }\n\n    /**\n     * @notice Sets the rebase lag parameter.\n               It is used to dampen the applied supply adjustment by 1 / rebaseLag\n               If the rebase lag R, equals 1, the smallest value for R, then the full supply\n               correction is applied on each rebase cycle.\n               If it is greater than 1, then a correction of 1/R of is applied on each rebase.\n     * @param rebaseLag_ The new rebase lag parameter.\n     */\n    function setRebaseLag(uint256 rebaseLag_)\n        external\n        onlyOwner\n    {\n        require(rebaseLag_ > 0);\n        rebaseLag = rebaseLag_;\n    }\n\n    /**\n     * @notice Sets the parameters which control the timing and frequency of\n     *         rebase operations.\n     *         a) the minimum time period that must elapse between rebase cycles.\n     *         b) the rebase window offset parameter.\n     *         c) the rebase window length parameter.\n     * @param minRebaseTimeIntervalSec_ More than this much time must pass between rebase\n     *        operations, in seconds.\n     * @param rebaseWindowOffsetSec_ The number of seconds from the beginning of\n              the rebase interval, where the rebase window begins.\n     * @param rebaseWindowLengthSec_ The length of the rebase window in seconds.\n     */\n    function setRebaseTimingParameters(\n        uint256 minRebaseTimeIntervalSec_,\n        uint256 rebaseWindowOffsetSec_,       // 15 minutes\n        uint256 rebaseWindowLengthSec_)\n        external\n        onlyOwner\n    {\n        require(minRebaseTimeIntervalSec_ > 0); // 1 day\n\n        require(rebaseWindowOffsetSec_ < minRebaseTimeIntervalSec_);\n\n        minRebaseTimeIntervalSec = minRebaseTimeIntervalSec_;\n        rebaseWindowOffsetSec = rebaseWindowOffsetSec_;\n        rebaseWindowLengthSec = rebaseWindowLengthSec_;\n    }\n\n    /**\n     * @dev ZOS upgradable contract initialization method.\n     *      It is called at the time of contract creation to invoke parent class initializers and\n     *      initialize the contract's state variables.\n     */\n    function initialize(address owner_, UFragments uFrags_, uint256 baseCpi_)\n        public\n        initializer\n    {\n        Ownable.initialize(owner_);\n\n        // deviationThreshold = 0.05e18 = 5e16\n        deviationThreshold = 5 * 10 ** (DECIMALS-2);\n\n        rebaseLag = 30;\n        minRebaseTimeIntervalSec = 1 days;\n        rebaseWindowOffsetSec = 72000;  // 8PM UTC\n        rebaseWindowLengthSec = 15 minutes;\n        lastRebaseTimestampSec = 0;\n        epoch = 0;\n\n        uFrags = uFrags_;\n        baseCpi = baseCpi_;\n    }\n\n    /**\n     * @return If the latest block timestamp is within the rebase time window it, returns true.\n     *         Otherwise, returns false.\n     */\n\n     // will be executed after 24 hour \n    function inRebaseWindow() public view returns (bool) {\n        return (\n            now.mod(minRebaseTimeIntervalSec) >= rebaseWindowOffsetSec &&\n            now.mod(minRebaseTimeIntervalSec) < (rebaseWindowOffsetSec.add(rebaseWindowLengthSec))\n        );\n    }\n\n    /**\n     * @return Computes the total supply adjustment in response to the exchange rate\n     *         and the targetRate.\n     */\n    function computeSupplyDelta(uint256 rate, uint256 targetRate)\n        private\n        view\n        returns (int256)\n    {\n        if (withinDeviationThreshold(rate, targetRate)) {\n            return 0;\n        }\n                    \n        // supplyDelta = UFragment-totalSupply * (rate - targetRate) / targetRate\n\n        int256 targetRateSigned = targetRate.toInt256Safe();\n        return uFrags.totalSupply().toInt256Safe()\n            .mul(rate.toInt256Safe().sub(targetRateSigned))\n            .div(targetRateSigned);\n    }\n\n    /**\n     * @param rate The current exchange rate, an 18 decimal fixed point number.\n     * @param targetRate The target exchange rate, an 18 decimal fixed point number.\n     * @return If the rate is within the deviation threshold from the target rate, returns true.\n     *         Otherwise, returns false.\n     */\n\n     \n     // rate = 5 and targetRate = 1.009\n    function withinDeviationThreshold(uint256 rate, uint256 targetRate)\n        private\n        view\n        returns (bool)\n    {\n        uint256 absoluteDeviationThreshold = targetRate.mul(deviationThreshold)\n            .div(10 ** DECIMALS);\n\n        return (rate >= targetRate && rate.sub(targetRate) < absoluteDeviationThreshold)\n            || (rate < targetRate && targetRate.sub(rate) < absoluteDeviationThreshold);\n    }\n}\n",
  "sourcePath": "/home/codezeros/Music/AMPL/uFragments/contracts/UFragmentsPolicy.sol",
  "compiler": {
    "name": "solc",
    "version": "0.4.24+commit.e67f0147.Emscripten.clang"
  },
  "schemaVersion": "2.0.1",
  "updatedAt": "2020-08-21T08:02:06.030Z"
}